:020000040800F2
:1000000060060020750200087D0200087F020008DB
:100010008102000883020008850200080000000039
:10002000000000000000000000000000870200083F
:1000300089020008000000008B0200088D02000801
:100040008F0200088F0200088F0200088F0200084C
:100050008F0200088F0200088F0200088F0200083C
:100060008F0200088F0200088F0200088F0200082C
:100070008F0200088F0200088F0200088F0200081C
:100080008F0200088F0200088F0200088F0200080C
:100090008F0200088F0200088F0200088F020008FC
:1000A0008F0200088F0200088F0200088F020008EC
:1000B0008F0200088F0200088F0200088F020008DC
:1000C0008F0200088F0200088F0200088F020008CC
:1000D0008F0200088F0200088F0200088F020008BC
:1000E0008F0200088F0200088F0200088F020008AC
:1000F0008F0200088F0200088F0200088F0200089C
:100100008F0200088F0200088F0200088F0200088B
:100110008F0200088F0200088F0200088F0200087B
:100120008F0200088F0200088F0200088F0200086B
:100130008F02000800000000000000008F0200088D
:100140008F0200088F0200088F0200088F0200084B
:100150008F0200088F0200088F0200088F0200083B
:100160008F0200088F0200088F0200088F0200082B
:100170008F0200088F0200088F02000800000000B4
:10018000000000008F0200080000000000000000D6
:100190008F02000800000000000000008F0200082D
:1001A0000000000000000000000000008F020008B6
:1001B0008F0200088F0200088F0200088F020008DB
:1001C0008F02000800F002F800F044F814A696E848
:1001D000000CB244B344DA4501D100F03BF8BAE870
:1001E0000F000FA696E83000A5EB040504EB060708
:1001F000AAEB0704A7F101074FEA15154FEA3414DB
:10020000A4F10104AC4201D300F024F813F0010F73
:1002100018BFFB1A43F0010300F001F8DBE71847B1
:1002200084010000940100007047000000230024B6
:1002300000250026103A28BF78C1FBD8520728BFF6
:1002400030C148BF0B6070471FB500F09EF81FBD5E
:1002500010B510BD00F031F81146FFF7F5FF00F0C2
:1002600071F800F04FF803B4FFF7F2FF03BC00F0A1
:1002700057F800000948804709480047FEE7FEE7B5
:10028000FEE7FEE7FEE7FEE7FEE7FEE7FEE7FEE746
:1002900004480549054A064B704700003103000831
:1002A000C5010008600000206006002060020020F8
:1002B00060020020704770477047754600F02CF8C8
:1002C000AE4605006946534620F00700854618B043
:1002D00020B5FFF7DDFFBDE820404FF000064FF0EE
:1002E00000074FF000084FF0000BAC46ACE8C00927
:1002F000ACE8C009ACE8C009ACE8C00921F00701CE
:100300008D46704710B50446AFF300802046BDE827
:100310001040FFF7A8BF0000004870470000002011
:1003200001491820ABBEFEE726000200704700001E
:100330004EF68851CEF20001086840F47000086063
:100340007047000043F63001C4F20201086840F033
:10035000010008600021C4F20201086820F00A00D0
:100360000860086840F00B0008600421C4F2020134
:10037000086820F0010008601421C4F20201086836
:1003800060F00500086000207047F1EE100A4FF69B
:10039000FF71C0F2C03120EA010040F04070E1EE90
:1003A000100A7047B4030008000000206006000037
:0403B0002C02000813
:040000050800027578
:00000001FF
