:020000040800F2
:1000000060060020750200087D0200087F020008DB
:100010008102000883020008850200080000000039
:10002000000000000000000000000000870200083F
:1000300089020008000000008B0200088D02000801
:100040008F0200088F0200088F0200088F0200084C
:100050008F0200088F0200088F0200088F0200083C
:100060008F0200088F0200088F0200088F0200082C
:100070008F0200088F0200088F0200088F0200081C
:100080008F0200088F0200088F0200088F0200080C
:100090008F0200088F0200088F0200088F020008FC
:1000A0008F0200088F0200088F0200088F020008EC
:1000B0008F0200088F0200088F0200088F020008DC
:1000C0008F0200088F0200088F0200088F020008CC
:1000D0008F0200088F0200088F0200088F020008BC
:1000E0008F0200088F0200088F0200088F020008AC
:1000F0008F0200088F0200088F0200088F0200089C
:100100008F0200088F0200088F0200088F0200088B
:100110008F0200088F0200088F0200088F0200087B
:100120008F0200088F0200088F0200088F0200086B
:100130008F02000800000000000000008F0200088D
:100140008F0200088F0200088F0200088F0200084B
:100150008F0200088F0200088F0200088F0200083B
:100160008F0200088F0200088F0200088F0200082B
:100170008F0200088F0200088F02000800000000B4
:10018000000000008F0200080000000000000000D6
:100190008F02000800000000000000008F0200082D
:1001A0000000000000000000000000008F020008B6
:1001B0008F0200088F0200088F0200088F020008DB
:1001C0008F02000800F002F800F044F814A696E848
:1001D000000CB244B344DA4501D100F03BF8BAE870
:1001E0000F000FA696E83000A5EB040504EB060708
:1001F000AAEB0704A7F101074FEA15154FEA3414DB
:10020000A4F10104AC4201D300F024F813F0010F73
:1002100018BFFB1A43F0010300F001F8DBE71847B1
:1002200000040000100400007047000000230024B8
:1002300000250026103A28BF78C1FBD8520728BFF6
:1002400030C148BF0B6070471FB500F0DBF91FBD20
:1002500010B510BD00F031F81146FFF7F5FF00F0C2
:100260007DF800F04FF803B4FFF7F2FF03BC00F095
:1002700057F800000948804709480047FEE7FEE7B5
:10028000FEE7FEE7FEE7FEE7FEE7FEE7FEE7FEE746
:1002900004480549054A064B704700003103000831
:1002A000C5010008600000206006002060020020F8
:1002B00060020020704770477047754600F02CF8C8
:1002C000AE4605006946534620F00700854618B043
:1002D00020B5FFF7DDFFBDE820404FF000064FF0EE
:1002E00000074FF000084FF0000BAC46ACE8C00927
:1002F000ACE8C009ACE8C009ACE8C00921F00701CE
:100300008D46704710B50446AFF300802046BDE827
:100310001040FFF7A8BF0000004870470000002011
:1003200001491820ABBEFEE726000200704700001E
:100330004EF68851CEF20001086840F47000086063
:100340007047000081B00090FFE70098411E0091C7
:1003500008B1FFE7F9E701B07047000080B582B04F
:100360000020019043F63001C4F20201086840F019
:10037000070008600021C4F20201086840F4A810D8
:100380000860086820F42810086040F20041C4F2B8
:100390000201086840F24052C0F2100210430860A7
:1003A00008684FF27F52CFF6DF721040086040F6C7
:1003B0000001C4F20201086840F480400860086847
:1003C00020F400400860FFE73F2000F05DF84AF2AB
:1003D0002010C0F207000090FFF7B4FF0098FFF76D
:1003E000B1FF062000F050F80098FFF7ABFF00982F
:1003F000FFF7A8FF5B2000F047F80098FFF7A2FF87
:100400000098FFF79FFF4F2000F03EF80098FFF79D
:1004100099FF0098FFF796FF662000F035F80098E6
:10042000FFF790FF0098FFF78DFF6D2000F02CF88C
:100430000098FFF787FF0098FFF784FF7C2000F00B
:1004400023F80098FFF77EFF0098FFF77BFF072057
:1004500000F01AF80098FFF775FF0098FFF772FF99
:100460007F2000F011F80098FFF76CFF0098FFF76D
:1004700069FF6F2000F008F80098FFF763FF00980D
:10048000FFF760FFA0E7000081B08DF803009DF842
:100490000300C00740B1FFE71421C4F2020108685D
:1004A00040F48060086007E01421C4F2020108688B
:1004B00020F480600860FFE79DF8030080070028B3
:1004C00009D5FFE740F21441C4F20201086840F088
:1004D0000800086008E040F21441C4F20201086814
:1004E00020F008000860FFE79DF80300400700289F
:1004F00009D5FFE740F21441C4F20201086840F058
:100500002000086008E040F21441C4F202010868CB
:1005100020F020000860FFE79DF803000007002896
:1005200009D5FFE740F21441C4F20201086840F027
:100530001000086008E040F21441C4F202010868AB
:1005400020F010000860FFE79DF80300C0060028B7
:1005500009D5FFE740F21441C4F20201086840F4F3
:100560008060086008E040F21441C4F202010868AB
:1005700020F480600860FFE79DF8030080060028F3
:1005800008D5FFE71421C4F20201086840F4807026
:10059000086007E01421C4F20201086820F48070AA
:1005A0000860FFE79DF803004006002808D5FFE734
:1005B0001421C4F20201086840F40070086007E0EA
:1005C0001421C4F20201086820F400700860FFE7FB
:1005D0009DF803000006002809D5FFE740F6140146
:1005E000C4F20201086840F08000086008E040F6AC
:1005F0001401C4F20201086820F080000860FFE7DF
:1006000001B07047F1EE100A4FF6FF71C0F2C03131
:1006100020EA010040F04070E1EE100A704700004F
:100620003006000800000020600600002C020008D0
:040000050800027578
:00000001FF
